{
  "_format": "hh-sol-artifact-1",
  "contractName": "Tracking",
  "sourceName": "contracts/Tracking.sol",
  "abi": [
    {
      "inputs": [],
      "stateMutability": "nonpayable",
      "type": "constructor"
    },
    {
      "anonymous": false,
      "inputs": [
        {
          "indexed": true,
          "internalType": "address",
          "name": "sender",
          "type": "address"
        },
        {
          "indexed": true,
          "internalType": "address",
          "name": "receiver",
          "type": "address"
        },
        {
          "indexed": false,
          "internalType": "uint256",
          "name": "pickupTime",
          "type": "uint256"
        },
        {
          "indexed": false,
          "internalType": "uint256",
          "name": "distance",
          "type": "uint256"
        },
        {
          "indexed": false,
          "internalType": "uint256",
          "name": "price",
          "type": "uint256"
        }
      ],
      "name": "ShipmentCreated",
      "type": "event"
    },
    {
      "anonymous": false,
      "inputs": [
        {
          "indexed": true,
          "internalType": "address",
          "name": "sender",
          "type": "address"
        },
        {
          "indexed": true,
          "internalType": "address",
          "name": "receiver",
          "type": "address"
        },
        {
          "indexed": false,
          "internalType": "uint256",
          "name": "deliveryTime",
          "type": "uint256"
        }
      ],
      "name": "ShipmentDelivered",
      "type": "event"
    },
    {
      "anonymous": false,
      "inputs": [
        {
          "indexed": true,
          "internalType": "address",
          "name": "sender",
          "type": "address"
        },
        {
          "indexed": true,
          "internalType": "address",
          "name": "receiver",
          "type": "address"
        },
        {
          "indexed": false,
          "internalType": "uint256",
          "name": "pickupTime",
          "type": "uint256"
        }
      ],
      "name": "ShipmentInTransit",
      "type": "event"
    },
    {
      "anonymous": false,
      "inputs": [
        {
          "indexed": true,
          "internalType": "address",
          "name": "sender",
          "type": "address"
        },
        {
          "indexed": true,
          "internalType": "address",
          "name": "receiver",
          "type": "address"
        },
        {
          "indexed": false,
          "internalType": "uint256",
          "name": "amount",
          "type": "uint256"
        }
      ],
      "name": "ShipmentPaid",
      "type": "event"
    },
    {
      "inputs": [
        {
          "internalType": "address",
          "name": "_sender",
          "type": "address"
        },
        {
          "internalType": "address",
          "name": "_receiver",
          "type": "address"
        },
        {
          "internalType": "uint256",
          "name": "_index",
          "type": "uint256"
        }
      ],
      "name": "completeShipment",
      "outputs": [],
      "stateMutability": "payable",
      "type": "function"
    },
    {
      "inputs": [
        {
          "internalType": "address",
          "name": "_receiver",
          "type": "address"
        },
        {
          "internalType": "uint256",
          "name": "_pickupTime",
          "type": "uint256"
        },
        {
          "internalType": "uint256",
          "name": "_distance",
          "type": "uint256"
        },
        {
          "internalType": "uint256",
          "name": "_price",
          "type": "uint256"
        }
      ],
      "name": "createShipment",
      "outputs": [],
      "stateMutability": "payable",
      "type": "function"
    },
    {
      "inputs": [],
      "name": "getAllTransactions",
      "outputs": [
        {
          "components": [
            {
              "internalType": "address",
              "name": "sender",
              "type": "address"
            },
            {
              "internalType": "address",
              "name": "receiver",
              "type": "address"
            },
            {
              "internalType": "uint256",
              "name": "pickupTime",
              "type": "uint256"
            },
            {
              "internalType": "uint256",
              "name": "deliveryTime",
              "type": "uint256"
            },
            {
              "internalType": "uint256",
              "name": "distance",
              "type": "uint256"
            },
            {
              "internalType": "uint256",
              "name": "price",
              "type": "uint256"
            },
            {
              "internalType": "enum Tracking.ShipmentStatus",
              "name": "status",
              "type": "uint8"
            },
            {
              "internalType": "bool",
              "name": "isPaid",
              "type": "bool"
            }
          ],
          "internalType": "struct Tracking.TyepShipment[]",
          "name": "",
          "type": "tuple[]"
        }
      ],
      "stateMutability": "view",
      "type": "function"
    },
    {
      "inputs": [
        {
          "internalType": "address",
          "name": "_sender",
          "type": "address"
        },
        {
          "internalType": "uint256",
          "name": "_index",
          "type": "uint256"
        }
      ],
      "name": "getShipment",
      "outputs": [
        {
          "internalType": "address",
          "name": "",
          "type": "address"
        },
        {
          "internalType": "address",
          "name": "",
          "type": "address"
        },
        {
          "internalType": "uint256",
          "name": "",
          "type": "uint256"
        },
        {
          "internalType": "uint256",
          "name": "",
          "type": "uint256"
        },
        {
          "internalType": "uint256",
          "name": "",
          "type": "uint256"
        },
        {
          "internalType": "uint256",
          "name": "",
          "type": "uint256"
        },
        {
          "internalType": "enum Tracking.ShipmentStatus",
          "name": "",
          "type": "uint8"
        },
        {
          "internalType": "bool",
          "name": "",
          "type": "bool"
        }
      ],
      "stateMutability": "view",
      "type": "function"
    },
    {
      "inputs": [
        {
          "internalType": "address",
          "name": "_sender",
          "type": "address"
        }
      ],
      "name": "getShipmentCount",
      "outputs": [
        {
          "internalType": "uint256",
          "name": "",
          "type": "uint256"
        }
      ],
      "stateMutability": "view",
      "type": "function"
    },
    {
      "inputs": [],
      "name": "shipmentCount",
      "outputs": [
        {
          "internalType": "uint256",
          "name": "",
          "type": "uint256"
        }
      ],
      "stateMutability": "view",
      "type": "function"
    },
    {
      "inputs": [
        {
          "internalType": "address",
          "name": "",
          "type": "address"
        },
        {
          "internalType": "uint256",
          "name": "",
          "type": "uint256"
        }
      ],
      "name": "shipments",
      "outputs": [
        {
          "internalType": "address",
          "name": "sender",
          "type": "address"
        },
        {
          "internalType": "address",
          "name": "receiver",
          "type": "address"
        },
        {
          "internalType": "uint256",
          "name": "pickupTime",
          "type": "uint256"
        },
        {
          "internalType": "uint256",
          "name": "deliveryTime",
          "type": "uint256"
        },
        {
          "internalType": "uint256",
          "name": "distance",
          "type": "uint256"
        },
        {
          "internalType": "uint256",
          "name": "price",
          "type": "uint256"
        },
        {
          "internalType": "enum Tracking.ShipmentStatus",
          "name": "status",
          "type": "uint8"
        },
        {
          "internalType": "bool",
          "name": "isPaid",
          "type": "bool"
        }
      ],
      "stateMutability": "view",
      "type": "function"
    },
    {
      "inputs": [
        {
          "internalType": "address",
          "name": "_sender",
          "type": "address"
        },
        {
          "internalType": "address",
          "name": "_receiver",
          "type": "address"
        },
        {
          "internalType": "uint256",
          "name": "_index",
          "type": "uint256"
        }
      ],
      "name": "startShipment",
      "outputs": [],
      "stateMutability": "nonpayable",
      "type": "function"
    }
  ],
  "bytecode": "0x608060405234801561001057600080fd5b506000600155610e0b806100256000396000f3fe60806040526004361061007b5760003560e01c80638365da541161004e5780638365da5414610114578063aace20b714610134578063b7dfd93d14610158578063cbc4b1811461018e57600080fd5b8063179a878c1461008057806327506f53146100955780635667e02f146100c05780637ff5265d146100f4575b600080fd5b61009361008e366004610ba1565b6101a1565b005b3480156100a157600080fd5b506100aa61043a565b6040516100b79190610c15565b60405180910390f35b3480156100cc57600080fd5b506100e06100db366004610cba565b61052f565b6040516100b7989796959493929190610ce4565b34801561010057600080fd5b5061009361010f366004610ba1565b6105a2565b34801561012057600080fd5b506100e061012f366004610cba565b61072d565b34801561014057600080fd5b5061014a60015481565b6040519081526020016100b7565b34801561016457600080fd5b5061014a610173366004610d3b565b6001600160a01b031660009081526020819052604090205490565b61009361019c366004610d5d565b610869565b6001600160a01b03831660009081526020819052604081208054839081106101cb576101cb610d96565b906000526020600020906007020190506000600283815481106101f0576101f0610d96565b60009182526020909120600184015460079092020191506001600160a01b0385811691161461025a5760405162461bcd60e51b815260206004820152601160248201527024b73b30b634b2103932b1b2b4bb32b91760791b60448201526064015b60405180910390fd5b6001600683015460ff16600281111561027557610275610bdd565b146102c25760405162461bcd60e51b815260206004820152601760248201527f536869706d656e74206f7420696e207472616e7369742e0000000000000000006044820152606401610251565b6006820154610100900460ff16156103155760405162461bcd60e51b815260206004820152601660248201527529b434b836b2b73a1030b63932b0b23c903830b4b21760511b6044820152606401610251565b60068281018054600260ff199182168117909255918301805490921617905542600380830182905583015560058201546040516001600160a01b0386169082156108fc029083906000818181858888f1935050505015801561037b573d6000803e3d6000fd5b506006838101805461010061ff00199182168117909255918401805490921617905560038301546040519081526001600160a01b0386811691908816907f3746ccceb54f44c9b0ee0120e596168d07ec9f6ca303cfdd9810d3b2e2686a2e9060200160405180910390a3846001600160a01b0316866001600160a01b03167f2b6f2473aebafaf8d0889669490135928ec4454d2e29a103fd39693bbca6aef18360405161042a91815260200190565b60405180910390a3505050505050565b60606002805480602002602001604051908101604052809291908181526020016000905b8282101561052657600084815260209081902060408051610100810182526007860290920180546001600160a01b03908116845260018201541693830193909352600280840154918301919091526003830154606083015260048301546080830152600583015460a0830152600683015491929160c084019160ff909116908111156104ec576104ec610bdd565b60028111156104fd576104fd610bdd565b815260069190910154610100900460ff161515602091820152908252600192909201910161045e565b50505050905090565b6000602052816000526040600020818154811061054b57600080fd5b600091825260209091206007909102018054600182015460028301546003840154600485015460058601546006909601546001600160a01b0395861698509490931695509093909260ff8082169161010090041688565b6001600160a01b03831660009081526020819052604081208054839081106105cc576105cc610d96565b906000526020600020906007020190506000600283815481106105f1576105f1610d96565b60009182526020909120600184015460079092020191506001600160a01b038581169116146106565760405162461bcd60e51b815260206004820152601160248201527024b73b30b634b2103932b1b2b4bb32b91760791b6044820152606401610251565b6000600683015460ff16600281111561067157610671610bdd565b146106be5760405162461bcd60e51b815260206004820152601c60248201527f536869706d656e7420616c726561647920696e207472616e7369742e000000006044820152606401610251565b60068281018054600160ff199182168117909255918301805490921617905560028201546040519081526001600160a01b0385811691908716907faafab9f94340179ff9cefd29621e1772a4b8efab8023163838f1b0a8f6ce5df5906020015b60405180910390a35050505050565b60008060008060008060008060008060008c6001600160a01b03166001600160a01b031681526020019081526020016000208a8154811061077057610770610d96565b60009182526020918290206040805161010081018252600790930290910180546001600160a01b03908116845260018201541693830193909352600280840154918301919091526003830154606083015260048301546080830152600583015460a0830152600683015491929160c084019160ff909116908111156107f7576107f7610bdd565b600281111561080857610808610bdd565b81526006919091015460ff61010090910416151560209182015281519082015160408301516060840151608085015160a086015160c087015160e090970151959f50939d50919b509950975095509093509150509295985092959890939650565b8034146108c45760405162461bcd60e51b8152602060048201526024808201527f5061796d656e7420616d6f756e74206d757374206d61746368207468652070726044820152631a58d94b60e21b6064820152608401610251565b6000604051806101000160405280336001600160a01b03168152602001866001600160a01b03168152602001858152602001600081526020018481526020018381526020016000600281111561091c5761091c610bdd565b815260006020918201819052338152808252604080822080546001818101835591845292849020855160079094020180546001600160a01b039485166001600160a01b031991821617825594860151818301805491909516951694909417909255830151600280840191909155606084015160038401556080840151600484015560a0840151600584015560c084015160068401805495965086959193909260ff199092169184908111156109d3576109d3610bdd565b021790555060e09190910151600690910180549115156101000261ff001990921691909117905560018054906000610a0a83610dac565b91905055506002604051806101000160405280336001600160a01b03168152602001876001600160a01b031681526020018681526020016000815260200185815260200184815260200160006002811115610a6757610a67610bdd565b81526000602091820181905283546001818101865594825290829020835160079092020180546001600160a01b039283166001600160a01b03199182161782559284015181860180549190931693169290921790556040820151600280830191909155606083015160038301556080830151600483015560a0830151600583015560c0830151600683018054949593949193909260ff19909216918490811115610b1357610b13610bdd565b021790555060e09190910151600690910180549115156101000261ff001990921691909117905560408051858152602081018590529081018390526001600160a01b0386169033907f5001b34ecf2db5b7bbeddcbbe761ec9ecadcc7638018b98ce3e24995b0e946b69060600161071e565b80356001600160a01b0381168114610b9c57600080fd5b919050565b600080600060608486031215610bb657600080fd5b610bbf84610b85565b9250610bcd60208501610b85565b9150604084013590509250925092565b634e487b7160e01b600052602160045260246000fd5b60038110610c1157634e487b7160e01b600052602160045260246000fd5b9052565b602080825282518282018190526000919060409081850190868401855b82811015610cad57815180516001600160a01b0390811686528782015116878601528581015186860152606080820151908601526080808201519086015260a0808201519086015260c080820151610c8c82880182610bf3565b505060e0908101511515908501526101009093019290850190600101610c32565b5091979650505050505050565b60008060408385031215610ccd57600080fd5b610cd683610b85565b946020939093013593505050565b6001600160a01b0389811682528816602082015260408101879052606081018690526080810185905260a081018490526101008101610d2660c0830185610bf3565b82151560e08301529998505050505050505050565b600060208284031215610d4d57600080fd5b610d5682610b85565b9392505050565b60008060008060808587031215610d7357600080fd5b610d7c85610b85565b966020860135965060408601359560600135945092505050565b634e487b7160e01b600052603260045260246000fd5b6000600019821415610dce57634e487b7160e01b600052601160045260246000fd5b506001019056fea26469706673582212207b200393e2de55b71ed3e7f587085fe6b6378eac38059357151fe722daabbaec64736f6c63430008090033",
  "linkReferences": {},
  "deployedLinkReferences": {}
}